:100000000C9462000C948A000C948A000C948A0070
:100010000C948A000C948A000C948A000C948A0038
:100020000C948A000C948A000C948A000C948A0028
:100030000C948A000C948A000C948A000C948A0018
:100040000C94CF020C948A000C9495020C945A02E2
:100050000C948A000C948A000C948A000C948A00F8
:100060000C948A000C948A000000000024002700F1
:100070002A000000000023002600290000000000E4
:10008000250028002B0004040404040404040202D4
:100090000202020203030303030301020408102007
:1000A0004080010204081020010204081020000012
:1000B0000007000201000003040600000000000029
:1000C0000000190311241FBECFEFD8E0DEBFCDBF63
:1000D00011E0A0E0B1E0E2E9FFE002C005900D927E
:1000E000A232B107D9F721E0A2E2B1E001C01D922E
:1000F000AD3DB207E1F710E0C2E6D0E004C02197C1
:10010000FE010E94B207C136D107C9F70E9454030D
:100110000C94B1050C940000E6EBF0E02491E2EAC7
:10012000F0E09491EEE8F0E0E491EE2309F43BC0B6
:10013000222339F1233091F038F42130A9F0223014
:1001400001F524B52F7D12C0263091F02730A1F0A3
:100150002430B9F4209180002F7D03C020918000CD
:100160002F77209380000DC024B52F7724BD09C0C0
:100170002091B0002F7703C02091B0002F7D2093F5
:10018000B000F0E0EE0FFF1FE458FF4FA591B491CF
:100190002FB7F894EC91811103C090959E2301C074
:1001A0009E2B9C932FBF089508950F931F93CF9379
:1001B000DF93FC01A685B7858D01005C1F4FE80128
:1001C0008881998101968F739927AD014E5B5F4FAE
:1001D000EA012881398182179307D1F3E801288148
:1001E0003981A20FB31F6C93A685B785A05CBF4F62
:1001F00011969C938E93A689B7892C9181E090E00B
:10020000078C02C0880F991F0A94E2F7822B8C9307
:1002100081E081A30488F589E02D8081806480835A
:1002200081E090E0DF91CF911F910F910895FC0143
:1002300081A1882329F0A489B5898C9186FFFBCF01
:1002400011A20895FC01A485B585FD01E05CFF4F76
:10025000208131813296808191812817390779F088
:1002600080819181A80FB91F8C91208131812F5FEE
:100270003F4F2F7333273183208390E008958FEF12
:100280009FEF0895DC011C96ED91FC911D97DF0115
:10029000A05CBF4F2D913C91119712968D919C912E
:1002A00011972817390739F08D919C91E80FF91FA4
:1002B000808190E008958FEF9FEF0895FC012485E1
:1002C0003585F901E05CFF4F808191813296208174
:1002D0003181821B930B8F73992708958BEB91E0EB
:1002E0000C945E01CF92DF92EF92FF920F931F93D7
:1002F000CF93DF936C01EB017B01E40EF51E00E070
:1003000010E0CE15DF0561F06991D601ED91FC9109
:100310000190F081E02DC6010995080F191FF1CF5A
:10032000C801DF91CF911F910F91FF90EF90DF9067
:10033000CF900895CF93DF9390E0FC01E656FF4FF6
:100340002491FC01EA57FF4F8491882361F190E0EA
:10035000880F991FFC01E859FF4FC591D491FC010A
:10036000E458FF4FA591B491611109C09FB7F8946B
:100370008881209582238883EC912E230BC06230E4
:1003800061F49FB7F8943881822F80958323888306
:10039000EC912E2B2C939FBF06C08FB7F894E88169
:1003A0002E2B28838FBFDF91CF9108953FB7F8940C
:1003B0008091270190912801A0912901B0912A01F3
:1003C00026B5A89B05C02F3F19F00196A11DB11DB0
:1003D0003FBFBA2FA92F982F8827820F911DA11DEB
:1003E000B11DBC01CD0142E0660F771F881F991F28
:1003F0004A95D1F70895009769F0FC01019000201B
:10040000E9F73197AF01481B590BBC018BEB91E029
:100410000C94720180E090E008958F929F92AF92C9
:10042000BF92EF92FF920F931F93CF93DF93CDB7BD
:10043000DEB7A1970FB6F894DEBF0FBECDBF162F63
:10044000042F19A2423008F40AE07E0121E2E20EF4
:10045000F11C802E912CA12CB12C612FA5019401AF
:100460000E948507029F1019112481E0E81AF10803
:100470001A3014F4105D01C0195CF7011083122FBB
:10048000732FCA01232B242B252B39F7C7010E9478
:10049000FB01A1960FB6F894DEBF0FBECDBFDF9172
:1004A000CF911F910F91FF90EF90BF90AF909F90D1
:1004B0008F9008951F920F920FB60F9211242F93D1
:1004C0003F938F939F93EF93FF932091730130910C
:1004D000740180917501909176012817390731F4E4
:1004E0008091C1008F7D8093C10014C0E09175019F
:1004F000F0917601ED5CFE4F208180917501909125
:10050000760101968F7399279093760180937501F8
:100510002093C600FF91EF919F918F913F912F9172
:100520000F900FBE0F901F9018951F920F920FB64D
:100530000F9211242F934F935F938F939F93EF9379
:10054000FF938091C00082FD1CC02091C600809165
:10055000B7019091B80101968F7399274091B90125
:100560005091BA018417950771F0E091B701F091AD
:10057000B801E958FE4F20839093B8018093B701EA
:1005800002C08091C600FF91EF919F918F915F9182
:100590004F912F910F900FBE0F901F9018951F92A3
:1005A0000F920FB60F9211242F933F938F939F9327
:1005B000AF93BF938091230190912401A0912501D5
:1005C000B09126013091220123E0230F2D3720F432
:1005D0000196A11DB11D05C026E8230F0296A11D9D
:1005E000B11D209322018093230190932401A093B5
:1005F0002501B09326018091270190912801A091B7
:100600002901B0912A010196A11DB11D80932701F6
:1006100090932801A0932901B0932A01BF91AF9133
:100620009F918F913F912F910F900FBE0F901F9030
:100630001895EBEBF1E01382128288EE93E0A0E0D4
:10064000B0E084839583A683B78384E091E09183AF
:10065000808387E791E09587848783E391E097879C
:10066000868785EC90E0918B808B84EC90E0938B77
:10067000828B80EC90E0958B848B81EC90E0978B63
:10068000868B82EC90E0918F808F86EC90E0938F48
:10069000828F84E0848F83E0858F87E0868F85E07A
:1006A000878F81E080A30895789484B5826084BDAB
:1006B00084B5816084BD85B5826085BD85B5816066
:1006C00085BD80916E00816080936E0010928100E4
:1006D000809181008260809381008091810081609F
:1006E0008093810080918000816080938000809160
:1006F000B10084608093B1008091B00081608093EC
:10070000B00080917A00846080937A0080917A00B2
:10071000826080937A0080917A00816080937A0071
:1007200080917A00806880937A001092C10060E026
:1007300087E00E949A0160E08EE00E949A0161E0E9
:1007400088E00E949A01E091CF01F091D00181E010
:1007500090E09C010090DB0102C0220F331F0A943D
:10076000E2F72083E091CB01F091CC011082E0917F
:10077000CD01F091CE0127E620831092DC01E091BB
:10078000D101F091D20140819C010090D70102C0BB
:10079000220F331F0A94E2F7242B2083E091D1012A
:1007A000F091D20140819C010090D80102C0220F3B
:1007B000331F0A94E2F7242B2083E091D101F091BA
:1007C000D20140819C010090D90102C0220F331F49
:1007D0000A94E2F7242B2083E091D101F091D20119
:1007E00020810090DA0102C0880F991F0A94E2F775
:1007F00080958223808310E45AE2252E312C80E0FC
:100800000E948C0082E090E00197F1F781E00E9465
:100810008C0082E290E00197F1F780E00E948C006A
:10082000E1EAF0E0C491EDE8F0E0849190E0880F17
:10083000991F8E589F4F40E050E0BA01FC01A591EE
:10084000B4912C912C232C1318C04F5F5F4F6F4F26
:100850007F4F4134F2E45F07FFE06F07710571F7E6
:1008600045C04F5F5F4F6F4F7F4F413422E45207C7
:100870002FE06207710509F439C0FC01A591B4911C
:100880002C912C232C13EDCF30E4C32E32E4D32E45
:100890003FE0E32EF12CC41AD50AE60AF70A20E05D
:1008A00030E0A901FC01A591B4916C916C236C130B
:1008B0000AC02C153D054E055F05C1F02F5F3F4F67
:1008C0004F4F5F4FEFCFA5E1B0E00E94A707DC01DB
:1008D000CB014096A11DB11DBC01CD0124E0969530
:1008E0008795779567952A95D1F703C060E070E00A
:1008F000CB0160932F01709330018093310190936D
:1009000032010E945E0626E933E44BE05DE30E947B
:10091000130720E030E040E05FE30E94130760939C
:100920002B0170932C0180932D0190932E01C0E038
:10093000D0E0219610937C0080917A0080648093AF
:100940007A0080917A0086FDFCCF8091780020911A
:10095000790090E0922BCD970CF4EEC060912F01BE
:100960007091300180913101909132010E945E06B8
:100970006B017C01BE010D2E000C880B990B0E94AF
:100980005E0620E030E048E451E40E9413072FE6C1
:1009900032E143E85AE30E9413079B01AC01C7010F
:1009A000B6010E94B50526E933E44BE85CE30E94FA
:1009B00013076B017C014B015C0180E191E00E9417
:1009C000FB01A7019601C701B6010E948007882399
:1009D00019F082E191E01AC026013701E89477F816
:1009E0002FEF3FEF4FE75FE7C301B2010E9480079F
:1009F00081110FC02FEF3FEF4FE75FE7C301B20157
:100A00000E94210618162CF486E191E00E94FB0159
:100A10008FC02FEF3FEF4FE75FE4C701B6010E94A1
:100A20000E0718161CF48AE191E0F0CF2FEF3FEF8C
:100A30004FE75FECC701B6010E94210687FDF3CFA7
:100A400020E030E0A901C701B6010E94210687FF1E
:100A500011C0E091BB01F091BC010190F081E02D4B
:100A60006DE28BEB91E0099546015701B7FAB0941E
:100A7000B7F8B0942AE037ED43EA5BE3C501B4016F
:100A80000E94B5056B017C010E942D064B015C01A3
:100A90000E945C069B01AC01C701B6010E94B4052F
:100AA0006B017C014AE0C501B4010E940D028EE198
:100AB00091E00E94FB0103E00150D1F120E030E021
:100AC00040E251E4C701B6010E9413074B015C01EB
:100AD0000E9426066B01770FEE08FF08F7FE16C08E
:100AE000E091BB01F091BC010190F081E02D6DE23D
:100AF0008BEB91E0099588279927DC018C199D09DA
:100B0000AE09BF094AE0BC01CD0103C04AE0C701FC
:100B1000B6010E940D02C701B6010E945E069B014C
:100B2000AC01C501B4010E94B4056B017C01C4CFC6
:100B300080E291E00E94FB01C1010197F1F7C03D05
:100B400087E0D80709F0F5CE0E94D601EB010E949C
:100B5000D6016C1B7D0B683E7340C8F30E946E018A
:100B60004ECEF8940C94C7075058BB27AA270E9472
:100B7000CC050C94D4060E94C60638F00E94CD061F
:100B800020F039F49F3F19F426F40C94C3060EF4B8
:100B9000E095E7FB0C94BD06E92F0E94E50658F3AB
:100BA000BA17620773078407950720F079F4A6F552
:100BB0000C9407070EF4E0950B2EBA2FA02D0B0115
:100BC000B90190010C01CA01A0011124FF27591B92
:100BD00099F0593F50F4503E68F11A16F040A22F98
:100BE000232F342F4427585FF3CF46953795279509
:100BF000A795F0405395C9F77EF41F16BA0B620B08
:100C0000730B840BBAF09150A1F0FF0FBB1F661F4E
:100C1000771F881FC2F70EC0BA0F621F731F841F91
:100C200048F4879577956795B795F7959E3F08F0B7
:100C3000B0CF9395880F08F09927EE0F9795879579
:100C400008950E94990608F481E008950E942D06F7
:100C50006894B1110C94080708950E94ED0688F07D
:100C60009F5798F0B92F9927B751B0F0E1F0660F70
:100C7000771F881F991F1AF0BA95C9F714C0B130B1
:100C800091F00E940707B1E008950C940707672FC1
:100C9000782F8827B85F39F0B93FCCF386957795E0
:100CA0006795B395D9F73EF49095809570956195C9
:100CB0007F4F8F4F9F4F0895E89409C097FB3EF4F4
:100CC00090958095709561957F4F8F4F9F4F992399
:100CD000A9F0F92F96E9BB279395F6958795779517
:100CE0006795B795F111F8CFFAF4BB0F11F460FFD7
:100CF0001BC06F5F7F4F8F4F9F4F16C0882311F02F
:100D000096E911C0772321F09EE8872F762F05C042
:100D1000662371F096E8862F70E060E02AF09A95DD
:100D2000660F771F881FDAF7880F9695879597F9D2
:100D30000895990F0008550FAA0BE0E8FEEF16166C
:100D40001706E807F907C0F012161306E407F507BF
:100D500098F0621B730B840B950B39F40A2661F033
:100D6000232B242B252B21F408950A2609F4A140D6
:100D7000A6958FEF811D811D089597F99F6780E8E3
:100D800070E060E008959FEF80EC089500240A94DD
:100D90001616170618060906089500240A94121656
:100DA0001306140605060895092E0394000C11F489
:100DB000882352F0BB0F40F4BF2B11F460FF04C036
:100DC0006F5F7F4F8F4F9F4F089557FD9058440F8F
:100DD000551F59F05F3F71F04795880F97FB991F9A
:100DE00061F09F3F79F08795089512161306140657
:100DF000551FF2CF4695F1DF08C0161617061806E4
:100E0000991FF1CF86957105610508940895E894BE
:100E1000BB2766277727CB0197F908950E9499068B
:100E200008F48FEF08950E9426070C94D4060E94C0
:100E3000C60638F00E94CD0620F0952311F00C94E0
:100E4000BD060C94C30611240C9408070E94E50605
:100E500070F3959FC1F3950F50E0551F629FF0010D
:100E6000729FBB27F00DB11D639FAA27F00DB11D26
:100E7000AA1F649F6627B00DA11D661F829F2227AF
:100E8000B00DA11D621F739FB00DA11D621F839F36
:100E9000A00D611D221F749F3327A00D611D231F0C
:100EA000849F600D211D822F762F6A2F11249F575A
:100EB00050409AF0F1F088234AF0EE0FFF1FBB1F5D
:100EC000661F771F881F91505040A9F79E3F51051C
:100ED00080F00C94BD060C9408075F3FE4F3983E45
:100EE000D4F3869577956795B795F795E7959F5FC6
:100EF000C1F7FE2B880F911D9695879597F9089558
:100F00000E949906880B990B0895A1E21A2EAA1B3C
:100F1000BB1BFD010DC0AA1FBB1FEE1FFF1FA217A9
:100F2000B307E407F50720F0A21BB30BE40BF50BA6
:100F3000661F771F881F991F1A9469F7609570952F
:100F4000809590959B01AC01BD01CF0108950E9451
:100F5000B807A59F900DB49F900DA49F800D911D83
:100F600011240895EE0FFF1F0590F491E02D0994D0
:100F7000A29FB001B39FC001A39F700D811D1124DA
:100F8000911DB29F700D811D1124911D0895F8943B
:020F9000FFCF91
:100F920000000000D50072015E012201420117012A
:100FA20073006E616E00696E66006F7666002E00D9
:020FB2006500D8
:00000001FF
